:03000000021ADC05
:0C1ADC00787FE4F6D8FD758121021B2301
:101DF500B3CCD0F2B3F6B4ED002D2D2D2D00CFFBD5
:101E0500B7D1C4A3CABD00CFFBB7D1A3BA0025641F
:101E15002E303000B3E4D6B5C4A3CABD00B3E4D6B2
:101E2500B5A3BA0025642E3000B6C1BFA8C4A3CAA5
:101E3500BD00B6C1BFA8A3BA2D2D2D2D00BFAABFC9
:101E4500A8C4A3CABD00BFAABFA8A3BA2D2D2D2D16
:101E550000B5E7C4D4BFD8D6C600D7A2B2E1B3C98E
:091E6500B9A600201210010000D2
:10185E004600A4FFFFFFFFFFFF50009400000000B2
:10186E000000000000000000000000005000AE006C
:10187E000000000000FF078069000000000000412A
:10188E00009201410093024100BF014200C00000DE
:0E189E004100BE014200AA00024200AC000A56
:10232A00C297D2B47FD07E071221F1C2B4D29722CB
:1020DF00D297E4900000F0900000E0C39403748066
:1020EF009480501EC297D2B47FC87E001221F1C2D5
:1020FF00B4D2977FC87E001221F1900000E004F067
:02210F0080D579
:0121110022AB
:0B1FFC0090002AEBF0A3EAF0A3E9F04C
:10200700782D7C007D017BFF7A1E79687E007F0634
:102017001200F690002AE0FBA3E0FAA3E0F8AC0276
:0F202700AD037B017A00792D7E007F060200F663
:081D7900E0FBA3E0FAA3E0F98E
:101D8100900001120135FF12011C2F240290003135
:101D9100F090002EEBF0A3EAF0A3E9F07FFC122310
:101DA1006690003274FCF0E4A3F0900031E0FF9003
:101DB1000033E0C39F503590002EE0FBA3E0FAA36F
:101DC100E0F912011CFF122366900032E0FF90003F
:101DD1002EE0FBA3E475F0011201ACA9F0FA1201A7
:101DE1001C6F900032F0A3E004F080BE900032E05E
:041DF100FF02236664
:0E234A00E490005CF090005EF090005DF022E8
:0B238D0090000574AA1201747F012269
:1017B400900003EBF0A3EAF0A3E9F07B017A00794F
:1017C400947F26121B68EF3395E04F60247B017AE7
:1017D4000079947F26121B68EF3395E04F601290D6
:1017E4000003E0FBA3E0FAA3E0F99000047409808D
:1017F400207B017A007996121585EF3395E04F909E
:1018040000036030E0FBA3E0FAA3E0F99000047465
:101814000A120174900001120135FF7E007D00E977
:101824002405F9E43AFA1203629000C0E4F0A30438
:10183400F07F0022E0FBA3E0FAA3E02405F9E43AF8
:10184400A801FCAD037B017A0079967E007F041227
:0A18540000F69000BF7401F0FF22BF
:0B0E5E00900003EBF0A3EAF0A3E9F022
:100E69009000017407120174900005120135900079
:100E79000CF0540364036013900003E0FBA3E0FA51
:100E8900A3E0F9900004740C020FA77B017A0079A2
:100E9900947F26121B68EF3395E04F60257B017A1A
:100EA9000079947F26121B68EF3395E04F60139009
:100EB9000003E0FBA3E0FAA3E0F99000047409023F
:100EC9000FA77B017A007996121585EF3395E04FCC
:100ED9006013900003E0FBA3E0FAA3E0F99000049B
:100EE900740A020FA77B017A00799612164CEF3328
:100EF90095E04F6013900003E0FBA3E0FAA3E0F94B
:100F0900900004740B020FA7900003E0FBA3E0FA22
:100F1900A3E02406F9E43AFA78067C007D017E0014
:100F29007F061200F690000CE0FD90002F7401F08E
:100F3900A37400F0A37496F07B017A0079067F60B0
:100F4900121E6EEF3395E04F6012900003E0FBA391
:100F5900E0FAA3E0F990000474048042900003E0F1
:100F6900FBA3E0FAA3E0240CF9E43AFA78AE7C009A
:100F79007D017E007F061200F690000CE0FF7B01E8
:100F89007A0079AE121906EF3395E04F602E900082
:100F990003E0FBA3E0FAA3E0F99000047406120150
:100FA900747E007F067D00E92406F9E43AFA12030B
:100FB900629000C0E4F0A304F07F00227E007F0667
:100FC9007D00900003E0FBA3E0FAA3E02406F9E426
:0C0FD9003AFA1203629000BF7401F0FFAE
:010FE50022E9
:0B0FE600900003EBF0A3EAF0A3E9F099
:100FF10090000174111201749000051201359000E6
:101001001CF0540364037013900003E0FBA3E0FAA7
:10101100A3E0F9900004740C02112F7B017A00798E
:10102100947F26121B68EF3395E04F60257B017A90
:101031000079947F26121B68EF3395E04F6013907F
:101041000003E0FBA3E0FAA3E0F9900004740902B5
:10105100112F7B017A007996121585EF3395E04FB8
:101061006013900003E0FBA3E0FAA3E0F990000411
:10107100740A02112F7B017A00799612164CEF3314
:1010810095E04F6013900003E0FBA3E0FAA3E0F9C1
:10109100900004740B02112F900003E0FBA3E0FA0F
:1010A100A3E02406F9E43AFA78167C007D017E007B
:1010B1007F061200F690001CE0FD90002F7401F0F5
:1010C100A37400F0A37496F07B017A0079167F6017
:1010D100121E6EEF3395E04F6012900003E0FBA308
:1010E100E0FAA3E0F990000474048042900003E068
:1010F100FBA3E0FAA3E0240CF9E43AFA78067C00B9
:101101007D017E007F101200F690001CE0FF7B0144
:101111007A007906121906EF3395E04F602E9000A0
:1011210003E0FBA3E0FAA3E0F990000474061201C6
:10113100747E007F107D00E92406F9E43AFA120377
:10114100629000C0E4F0A304F07F00229000BF741D
:0311510001F0FFAB
:011154002278
:0B115500900003EBF0A3EAF0A3E9F028
:101160009000017411120174900005120135900075
:101170001CF0540364037013900003E0FBA3E0FA37
:10118000A3E0F9900004740C0212807B017A0079CC
:10119000947F26121B68EF3395E04F60257B017A20
:1011A0000079947F26121B68EF3395E04F6013900F
:1011B0000003E0FBA3E0FAA3E0F990000474090245
:1011C00012807B017A007996121585EF3395E04FF6
:1011D0006013900003E0FBA3E0FAA3E0F9900004A1
:1011E000740A0212807B017A00799612164CEF3352
:1011F00095E04F6012900003E0FBA3E0FAA3E0F952
:10120000900004740B8079900003E0FBA3E0FAA344
:10121000E02406F9E43AFA78167C007D017E007F2E
:10122000061200F690001CE0FD90002F7401F0A360
:101230007400F0A37496F07B017A0079167F601237
:101240001E6EEF3395E04F6012900003E0FBA3E0C9
:10125000FAA3E0F99000047404802590001CE0FFDC
:101260007B017A007906121A47EF3395E04F900020
:1012700003602BE0FBA3E0FAA3E0F99000047405FF
:101280001201747E007F107D00E92406F9E43AFA29
:101290001203629000C0E4F0A304F07F0022E0FBA0
:1012A000A3E0FAA3E02406F9E43AA801FCAD037B2D
:1012B000017A0079067E007F101200F69000BF745C
:0312C00001F0FF3B
:0112C3002208
:102238007BFF7A1D79F59000437403F07D01121F2E
:10224800BD7BFF7A1D79FE9000437403F07D040284
:022258001FBDA8
:1012C4007E007F0A7D007B017A00792A12036290F6
:1012D4000093E0700302139614604124FE7003022D
:1012E40013760460030213B77BFF7A1E7903900020
:1012F400437403F07D01121FBD7BFF7A1E790CE459
:10130400900043F07D03121FBD90003774FFF0A3DB
:10131400741EF0A37413F09000AA80327BFF7A1E2F
:1013240079199000437403F07D01121FBD7BFF7A8D
:101334001E7922E4900043F07D03121FBD90003714
:1013440074FFF0A3741EF0A37429F09000ACE0FFC6
:10135400A3E090003ACFF0A3EFF07B017A00792A62
:101364001207AC7B017A00792A9000437403F0FDE4
:10137400803E7BFF7A1E792E9000437403F07D013A
:10138400121FBD7BFF7A1E7937E4900043F07D0382
:10139400801E7BFF7A1E79429000437403F07D0126
:1013A400121FBD7BFF7A1E794BE4900043F07D034E
:0313B400121FBD48
:0113B7002213
:0E0CC200900026E0FCA3E0FDA3E0FEA3E0FF0F
:060CD00090002A1202F858
:100CD6009000387401F0A37400F0A3742EF0E47F42
:100CE6000F7E27FDFC90002AE0F8A3E0F9A3E0FAC6
:100CF600A3E0FBD31202E7400A90002A1203040085
:100D060000270F90002AE0FCA3E0FDA3E0FEA3E08D
:100D1600FF90003B1202F8E47BE87A03F9F89000B2
:100D26003BE0FCA3E0FDA3E0FEA3E0FF120255EFCB
:100D36002430FF900038E0FBA3E475F0011201AC0B
:100D4600A9F0FAEF12016290003BE0FCA3E0FDA3DC
:100D5600E0FEA3E0FFE47BE87A03F9F8120255AC63
:100D660000AD01AE02AF0390003B1202F8E47B64D3
:100D7600FAF9F890003BE0FCA3E0FDA3E0FEA3E057
:100D8600FF120255EF2430FF900038E0FBA3E47514
:100D9600F0011201ACA9F0FAEF12016290003BE0FB
:100DA600FCA3E0FDA3E0FEA3E0FFE47B64FAF9F810
:100DB600120255AC00AD01AE02AF0390003B120229
:100DC600F8E47B0AFAF9F890003BE0FCA3E0FDA307
:100DD600E0FEA3E0FF120255EF2430FF900038E05A
:100DE600FBA3E475F0011201ACA9F0FAEF1201625F
:100DF60090003BE0FCA3E0FDA3E0FEA3E0FFE47B64
:100E06000AFAF9F8120255AC00AD01AE02AF039032
:100E1600003B1202F890003BA3A3A3E02430FF900E
:100E26000038E0FBA3E475F0011201ACA9F0FAEF7B
:100E3600120162900038E0FBA3E475F0011201ACE8
:100E4600A9F0FAE41201627B017A00792E90004340
:080E56007403F07D04021FBDCE
:0B14A70090002AEBF0A3EAF0A3E9F0AC
:1014B2009000377401F0A37400F0A3742DF0E4FFE0
:1014C200EFC3940474809480400302156090002A54
:1014D200E0FBA3E0FAA3E0F912011CC4540FFEFDE5
:1014E200C374809480400FD3ED940974809480502B
:1014F20005EE24308003EE2437FD900037E0FBA395
:10150200E475F0011201ACA9F0FAED12016290004B
:101512002AE0FBA3E0FAA3E0F912011C540FFEFD3E
:101522007C00C374809480400FD3ED94097480943E
:10153200805005EE24308003EE2437FE900037E021
:10154200FBA3E475F0011201ACA9F0FAEE120162FC
:1015520090002BE475F0011201960F0214C2900064
:1015620037E0FBA3E475F0011201ACA9F0FAE41232
:1015720001627B017A00792D9000437403F07D02B1
:03158200021FBD88
:10203600E4900092F07BFF7A1E7956900043740379
:10204600F07D01121FBD7BFF7A1D79FE900043745F
:1020560003F07D04121FBD7BFF7A1D79FE900043BD
:0A2066007403F0FD121FBD7F01227C
:0C2381009000927401F01212C47F01223F
:1013B8007FFE90005DE0640160030214A6900000C7
:1013C80004F0A37400F0A3745FF0900000E0FBA3A6
:1013D800E0FAA3E0F9900001120135FE12011C2E7B
:1013E8002403FEE4FDEE14FCEDC39C5010745F2D45
:1013F800F582E43400F583E06FFF0D80E89000008B
:10140800E0FBA3E0FAA3E0F99000021201C2120384
:101418003514350002143A0003144A0110145A0115
:1014280020146A0130147A01400000148A12238DB6
:101438008063900000E0FBA3E0FAA3E0F91217B480
:101448008053900000E0FBA3E0FAA3E0F9120E5EDF
:101458008043900000E0FBA3E0FAA3E0F9121155E5
:101468008033900000E0FBA3E0FAA3E0F9120FE656
:101478008023900000E0FBA3E0FAA3E0F9122381A7
:101488008013900000E0FBA3E0FAA3E0F9900004C9
:0E1498007402120174900000121D7912234A92
:0114A6002223
:1019AB007FFEE490002DF090005DE0640160030287
:1019BB001A4190002A7401F0A37400F0A3745FF035
:1019CB0090002AE0FBA3E0FAA3E0F99000011201DA
:1019DB0035FE12011C2E2403FEE4FDEE14FCEDC3B8
:1019EB009C5010745F2DF582E43400F583E06FFF9B
:1019FB000D80E890002AE0FBA3E0FAA3E0F9900049
:101A0B00021201C21203351A1A014100001A2512E3
:101A1B00203690002D7401F0801390002AE0FBA378
:101A2B00E0FAA3E0F9900004740212017490002A0A
:0B1A3B00121D7912234A90002DE0FFDD
:011A4600227D
:1003D4001219ABEF64017003020746121F2DEF24BC
:1003E400FE601C14602C14603A2403704C9000933B
:1003F4007402F07BFF7A1E790390004304803490EA
:1004040000937401F07BFF7A1E7919900043740302
:1004140080219000937403F07BFF7A1E792E900064
:10042400438010E4900093F07BFF7A1E79429000A1
:10043400437403F07D01121FBD7B017A0079947F20
:1004440026121B68EF3395E04F60147B017A007924
:10045400947F26121B68EF3395E04F600280227B65
:10046400017A007996121585EF3395E04F6002808A
:10047400107B017A00799612164CEF3395E04F60A9
:10048400030212C47B017A0079961214A77B017AC5
:10049400007920121FFC900093E014700302054FB2
:1004A4001470030206071470030206EE24036003AB
:1004B40002074390002F7401F0A37400F0A3749614
:1004C400F07B017A0079A47D047F60121E6EEF3305
:1004D40095E04F60030207247E007F107D007B01BE
:1004E4007A0079101203627B017A0079107F04127A
:1004F4001906EF3395E04F600302072478107C005F
:100504007D017B017A0079AE7E007F101200F678BF
:10051400107C007D017B017A0079207E007F061229
:1005240000F67B017A0079107F07121906EF3395E4
:10053400E04F60030207247BFF7A1E795F9000433B
:100544007403F07D01121FBD02073D90002F74015A
:10055400F0A37400F0A37496F07B017A0079207DF7
:10056400047F60121E6EEF3395E04F600302072490
:100574007B017A0079007F04121A47EF3395E04F2C
:10058400600302072478267C007D017B017A0079D0
:10059400007E007F041200F6900026E0F8A3E0F944
:1005A400A3E0FAA3E0FB9000ACE0FEA3E0FFEE338F
:1005B40095E0FDFCEB2FFFEA3EFEE93DFDE83CFC47
:1005C4009000261202F87E007F107D007B017A00E5
:1005D400791012036278107C007D017B017A007926
:1005E400267E007F041200F67B017A0079107F04D6
:1005F400121906EF3395E04F6003020724120CC270
:1006040002073D90002F7401F0A37400F0A37496C8
:10061400F07B017A0079207D047F60121E6EEF3337
:1006240095E04F60030207247B017A0079007F0480
:10063400121A47EF3395E04F600302072478267CB3
:10064400007D017B017A0079007E007F041200F6B0
:10065400E47F08FEFDFC900026E0F8A3E0F9A3E0A7
:10066400FAA3E0FBC31202E7500C1222389000C038
:10067400E4F0A304F022900026E0FCA3E0FDA3E054
:10068400FEA3E0FFC006C0079000AAE0FEA3E0FBC3
:10069400AA06EA3395E0F9F8D007D006C3EF9BFF2A
:1006A400EE9AFEED99FDEC98FC9000261202F87E7D
:1006B400007F107D007B017A0079101203627810AC
:1006C4007C007D017B017A0079267E007F04120084
:1006D400F67B017A0079107F04121906EF3395E056
:1006E4004F6002803B120CC2804F90002F7401F0C7
:1006F400A37400F0A37496F07B017A0079207D0442
:100704007F60121E6EEF3395E04F600280127B0112
:100714007A0079007F04121A47EF3395E04F6003A3
:1007240002223878267C007D017B017A0079007EE4
:10073400007F041200F6120CC29000BF7401F01284
:020744001EDBBA
:010746002290
:1020A900900092E070051213B8800B900092E064E2
:1020B9000170031203D49000BFE06005E4F012231D
:1020C9002A9000C0E07002A3E0600AE49000C0F02A
:0620D900A3F01220DF223B
:101F7A00B4B4CBBCCDA8D0C5007777772E6373678E
:101F8A00736D2E636F6D00D3E0B6EEA3BA2D2D2DBF
:101F9A002D00BFA8BAC5A3BA2D2D2D2D00CFFBB792
:101FAA00D1A3BA2D2D2D2D00D7B4CCACA3BA2D2D8B
:031FBA002D2D00CA
:1021F100EF1FAA0670011E4A6019E4FCFDC3ED94AD
:102201002CEC940150EA0000000000000DBD00011B
:032211000C80EA54
:0122140022A7
:0D237400E4F5907FC8FE1221F17590FF2264
:0B23980053B1EF43B210C2B4D2972241
:0523A900C2B4D297222E
:01000A0022D3
:0123AE00220C
:10229800C2AF1222C91223A3122398122358122361
:0A22A800A912000A122374D2AF221B
:101CF9001222157BFF7A1F797A9000437402F0FD56
:101D0900121FBD7BFF7A1F79839000437401F07D18
:101D190004121FBD7FD07E071221F11222157F0206
:101D29007E001221F17BFF7A1F7991E4900043F044
:101D39007D04121FBD7BFF7A1F799CE4900043F05C
:101D49007D02121FBD7BFF7A1F79A7E4900043F043
:101D59007D03121FBD7BFF7A1F79B2E4900043F027
:101D69007D01121FBD1222981223AE1220A980F8FC
:10000E00E4FDFCC3ED9FEC9E500A0000000DBD0008
:04001E00010C80EF62
:0100220022BB
:10225A00E4FFFEEEC39408748094805011EF25E0E9
:0E226A00FFC2A630A4034401FFD2A60E80E5F9
:012278002243
:1021A200E4FEEEC3940874809480501BEF30E70481
:1021B200D2A58002C2A50000C2A60000D2A60000DD
:0721C200EF25E0FF0E80DBBA
:0121C90022F3
:1022DF00E4FEC2A7EF25E0547E4480FF1221A21234
:0422EF00225AD2A7F6
:0122F30022C8
:102144001221607D1E7F2D122160E4FD7F2C12215F
:0C215400607D8D7F2A1221607D3E7F2B74
:10216000C2A7EF25E0547EFF1221A2AF051221A2E3
:02217000D2A7F4
:01217200224A
:0522B200F07D087F082B
:0222B700AC0772
:1022B900E4FE1222DFAE07AF04EDF45EFD022160F9
:0E2279001222B7E4FD7F011221607D807F0AF2
:02228700AC07A2
:0F228900E4FE1222DFAE07AF04ED4EFD0221602E
:061BF3007B017A00792F4E
:0E1BF900900042EBF0A3EAF0A3E9F0A3EDF0B8
:101C07007D047F05122279E4FC900045E0FFECC3D8
:101C17009F501C900042E0FBA3E0FAA3E0F98C82FE
:101C2700758300120135FD7F091221600C80DA7D72
:101C3700037F011221607CFF7F051222DF1CEC600D
:101C470004EF30E2F37F221222DF900046E0FBA38D
:101C5700E0FAA3E0F9EF1201627F211222DF900080
:101C670046E0FBA3E0FAA3E0F9900001EF0201745C
:100AAC0090004AF0A37401F0A37400F0A3742FF02B
:100ABC00A37401F0A37400F0A3742DF07A00792FC5
:040ACC007B017F0C1F
:100AD000900047EBF0A3EAF0A3E9F0900046EFF0B6
:100AE00090005174FEF0E4A3F0A3F0EF24F4601042
:100AF00024FE70169000527412F0A37410F0800A55
:100B00009000527477F0A37430F0900052E044806B
:100B1000FD7F021221607D807F04122279E4900023
:100B200055F0A3F090004AE0FF900055E0FCA3E0F0
:100B3000FDC39FEC94005028900047E0FBA3E0FA2F
:100B4000A3E0F98D828C83120135FD7F09122160AB
:100B5000900056E004F070CC900055E004F080C4A2
:100B6000900046E0FD7F01122160E0640C70077D7B
:100B7000807F0D1222879000557407F0A374D0F087
:100B80007F041222DF900054EFF0900056E024FF23
:100B9000F0900055E034FFF0E07002A3E0601190A7
:100BA0000054E0FF20E009900053E0FEEF5E60D0CB
:100BB0007D807F0D1222B7900055E07002A3E07097
:100BC00003020CAE7F061222DFEF541B6003020CFF
:100BD000A8900051F0A3E0FF900054E05F30E006E1
:100BE00090005174FFF0900046E0640C6003020C2A
:100BF000AE7F0A1222DF900054EFF07F0C1222DF4A
:100C0000EF5407FD6026E024FFFFE434FFFEEF7899
:100C100003C333CE33CED8F97C002DFFEC3EF990E0
:100C2000004EE0FBA3E0FAA3E0C98016900054E078
:100C300075F008A4FF90004EE0FBA3E0FAA3E0F9F2
:100C4000E5F08FF01201FA900054E0700204F09089
:100C50000054E0D394127480948040037412F0E442
:100C6000900055F0A3F0900054E0FFC3900056E0D0
:100C70009F900055E0940050357F091222DF9000CC
:100C80004BE0FBA3E0FAA3E0F9900055E0FCA3E001
:100C9000F5828C83EF120174900056E004F070C668
:100CA000900055E004F080BE90005174FEF07D800D
:100CB0007F0C122287E4FD7F01122160900051E039
:010CC000FF34
:010CC1002210
:0D1B680090002AEFF0A3EBF0A3EAF0A3E950
:101B75001222B27D077F0D1221607D037F14122290
:101B85008790002AE0900030F090004A7401F0A39D
:101B9500F0A37400F0A37430F0A37401F0A37400F3
:101BA500F0A3742EF07A007930120ACCEFFD33954C
:101BB500E04D703790002EE07004A3E06410702BA8
:101BC500900030E0FE90002BE0FBA3E0FAA3E0F9E3
:101BD500EE120162900031E0FE90002BE0FBA3E0E5
:0D1BE500FAA3E0F9900001EE0201747FFE0A
:011BF20022D0
:0B15850090002AEBF0A3EAF0A3E9F0CD
:10159000E490002E1222B2E4FD7F0D1221607D80C6
:1015A0007F0E1222B79000317493F0A37420F09054
:1015B000004A7402F07B01A314F0A37400F0A3743A
:1015C00031F0A3EBF0A37400F0A3742FF07A00794C
:1015D000317F0C120AD090002DEFF03395E04F7060
:1015E0005EFDEDC3940474809480503A74312DF5FF
:1015F00082E43400F583E0FF90002AE0FBA3E0FAE8
:10160000A3E0F98D82758300EF12017490002EE043
:10161000FF74312DF582E43400F583E0FEEF6E9027
:10162000002EF00D80BC74312DF582E43400F5837A
:10163000E0FF90002EE06F600690002D74FEF07DBC
:0B164000807F0E12228790002DE0FF3B
:01164B00227C
:0B164C0090002AEBF0A3EAF0A3E9F005
:1016570090002F7493F0A37470F0E4900035F0FDC0
:10166700EDC3940474809480503790002AE0FBA364
:10167700E0FAA3E0F98D82758300120135FF74311A
:101687002DF582E43400F583EFF0900035E0FF8D0F
:1016970082758300120135FEEF6E900035F00D80E4
:1016A700BF9000467401F0A37400F0A37436F07B7A
:1016B700017A00792F7D07121BF91222B390004A95
:1016C7007409F0A37401F0A37400F0A3742FF0A3BE
:1016D7007401F0A37400F0A3742DF07B017A0079F4
:1016E7002F7F0C120AD0EFFD3395E04D700E90005E
:0E16F7002DE07004A3E064187002FF227FFE55
:0117050022C1
:101E6E00900034EFF0A3EDF078367C007D017E001B
:101E7E007F061200F6783C7C007D0190002FE0FB7F
:101E8E00A3E0FAA3E0F97E007F041200F690004A68
:101E9E00740CF0A37401F0A37400F0A37434F0A3D7
:101EAE007401F0A37400F0A37432F07B017A007910
:101EBE00347F0E120AD0AD07ED3395E04F70097FD7
:0C1ECE00081222DFEF20E3027DFEAF05CA
:011EDA0022E5
:0B1A470090002AEBF0A3EAF0A3E9F006
:101A52009000307430F0A3EFF09000467401F0A3D0
:101A62007400F0A37432F07B017A0079307D0212A7
:101A72001BF990004A7404F0A37401F0A37400F0FF
:101A8200A37430F0A37401F0A37400F0A3742EF0D9
:101A92007B017A0079307F0C120AD090002DEFF092
:101AA2003395E04F7028A3E07004A3E06490701EA9
:101AB20090002AE0FBA3E0FAA3E0F8AC02AD037BBE
:101AC200017A0079307E007F101200F680069000C5
:091AD2002D74FEF090002DE0FFE0
:011ADB0022E8
:0B19060090002AEBF0A3EAF0A3E9F048
:1019110090002F74A0F0A3EFF09000467401F0A3A3
:101921007400F0A37431F07D02121BF37404120AE7
:10193100ACEFFD3395E04D701690002DE07004A3DF
:10194100E06404700A90002FE0540F640A60027F83
:10195100FEEFFD3395E04D7050782F7C007D0190B6
:10196100002AE0FBA3E0FAA3E0F97E007F10120059
:10197100F69000467401F0A37400F0A3743FF07D6B
:1019810010121BF37412120AACEFFD3395E04D7087
:101991001690002DE07004A3E06404700A90002FFB
:0919A100E0540F640A60027FFEAD
:0119AA00221A
:101EDB0090002D7450F0E4A3F07B0190004604F0C9
:101EEB00A37400F0A3742FF07A00792D7D02121BDE
:101EFB00F990004A7404F0A37401F0A37400F0A3EA
:101F0B00742DF0A37401F0A37400F0A3742BF07B79
:101F1B00017A00792D7F0C120AD090002AEFF07F06
:011F2B0000B5
:011F2C002292
:10211200D2A37F0A7E0012000EC2A312000ED2A327
:1021220012000E7D0F7F011221607F0A7E001200D5
:102132000E7D3D7F111221447D407F151221607F6B
:02214200002279
:10217300EF644170241222B37D3D7F111221607DF3
:10218300867F171221607D7F7F261221447FE87EA0
:0F2193000312000E12230780037FFF227F00221A
:102307007F141222DFEF540370077D037F1412221C
:01231700873E
:0123180022A2
:070003007D037F140222B708
:0E2358001221121200031223077F410221738B
:0F18AC004200C400004200C800004200C2000019
:1022C900758921758C69758AFAD2A9D28C758DFBAD
:0622D900758BFBD28E2282
:03000B00021C775D
:101C7700C0E0C0F0C083C082C0D075D000C000C033
:101C870001C002C003C004C005C006C007758C6947
:101C9700758AFA9000C9E004F070069000C8E00465
:101CA700F09000C3E004F070069000C2E004F090EA
:101CB70000CAE0600214F09000C4E475F00112015C
:101CC700ACFEC3E5F09402EE9400400B90005EE09A
:101CD7006401700312234AD007D006D005D004D080
:101CE70003D002D001D000D0D0D082D083D0F0D0A2
:021CF700E032D9
:1018BB006032005F0000000000000000000000002C
:1018CB00000000000000000000000000000000000D
:1018DB0000000000000000000000000000000000FD
:1018EB0000000000000041005C004100910041003D
:0618FB005E0041005D00EB
:0E236600C2ACC2998F993099FDC299D2AC22B7
:03002300021706BB
:10170600C0E0C083C082C0D075D000C002C004C093
:0517160005C006C0073C
:10171B002098030217A1C2989000C4E4F0A3F0AF85
:10172B009990005EE0FD7C007014EF64FE700F0476
:10173B00F090005CE4F090009174FFF08058ED6441
:10174B00014C705290005CE0FE04F0745F2EF58249
:10175B00E43400F583EFF090005CE0FAFD7C00646C
:10176B00027012900060E0FE90005FE02E24039068
:10177B000091F08010900091E0FFEAC39F4006902B
:10178B00005D7401F0C3ED942DEC648094804006F1
:06179B0090005C742DF0CB
:1017A100D007D006D005D004D002D0D0D082D083CB
:0317B100D0E03253
:0623A300759850D2AC2237
:041901004100CA00D7
:101F2D00D2B6D2A1C2B60020B70C9000CAE070069E
:101F3D00740FF07F012220A20C9000CAE07006748D
:101F4D000FF07F0222D2B6D2A1C2A10020B70C9011
:101F5D0000CAE07006740FF07F032220A20C9000DF
:0D1F6D00CAE07006740FF07F04227F00228E
:1022F400EF1FAC0670011E4C6008000000000000D7
:0323040080EE2246
:102319007580FFD2B2C2B3D2B5E58020E7FBC2B562
:012329002291
:10233A00122319C2B2A20092B3D2B58F80C2B522BB
:10207000EF24FE600F14601114601324037018ED38
:102080002480800DED24908008ED24888003ED24C9
:1020900098FBE433FA80047A007B80AF03C200121D
:0920A000233A7F017E000222F4C4
:101FBD0090003FEBF0A3EAF0A3E9F0AF05900043EA
:101FCD00E0FD12207090003FE0FBA3E0FAA3E0F9E2
:101FDD0012011CFFD39400748094804011D2001222
:0F1FED00233A900040E475F00112019680D7224C
:10221500C2007F3012233AC2007F0812233AC2005F
:102225007F1012233AC2007F0C12233AC2007F01AD
:0322350002233A47
:101AE800021CF9E493A3F8E493A34003F68001F2FF
:101AF80008DFF48029E493A3F85407240CC8C333FF
:101B0800C4540F4420C8834004F456800146F6DFCD
:101B1800E4800B010204081020408090185EE47EE7
:101B2800019360BCA3FF543F30E509541FFEE493C2
:101B3800A360010ECF54C025E060A840B8E493A389
:101B4800FAE493A3F8E493A3C8C582C8CAC583CAB4
:101B5800F0A3C8C582C8CAC583CADFE9DEE780BE6C
:0119050000E1
:10002600E709F608DFFA8046E709F208DFFA803EBC
:1000360088828C83E709F0A3DFFA8032E309F608A9
:10004600DFFA8078E309F208DFFA807088828C8311
:10005600E309F0A3DFFA806489828A83E0A3F608C5
:10006600DFFA805889828A83E0A3F208DFFA804C9F
:1000760080D280FA80C680D4806980F28033801076
:1000860080A680EA809A80A880DA80E280CA8033DF
:1000960089828A83ECFAE493A3C8C582C8CCC58357
:1000A600CCF0A3C8C582C8CCC583CCDFE9DEE78027
:1000B6000D89828A83E493A3F608DFF9ECFAA9F0A6
:1000C600EDFB2289828A83ECFAE0A3C8C582C8CCFC
:1000D600C583CCF0A3C8C582C8CCC583CCDFEADE15
:1000E600E880DB89828A83E493A3F208DFF980CC77
:1000F60088F0EF60010E4E60C388F0ED2402B40470
:100106000050B9F582EB2402B4040050AF23234516
:06011600822390007673C5
:10011C00BB010689828A83E0225002E722BBFE02E1
:09012C00E32289828A83E4932214
:10013500BB010CE58229F582E5833AF583E022507F
:1001450006E92582F8E622BBFE06E92582F8E222C9
:0D015500E58229F582E5833AF583E49322E3
:10016200BB010689828A83F0225002F722BBFE017C
:02017200F32276
:10017400F8BB010DE58229F582E5833AF583E8F0C1
:10018400225006E92582C8F622BBFE05E92582C86D
:02019400F22255
:10019600C5F0F8A3E028F0C5F0F8E58215827002F4
:0601A6001583E038F02291
:1001AC00A3F8E0C5F025F0F0E58215827002158306
:0601BC00E0C838F0E82263
:1001C200BB0110E58229F582E5833AF583E0F5F07B
:1001D200A3E0225009E92582F886F008E622BBFE58
:1001E2000AE92582F8E2F5F008E222E5832AF5839E
:0801F200E993F5F0A3E9932263
:1001FA00BB010A89828A83F0E5F0A3F0225006F750
:0F020A0009A7F01922BBFE06F3E5F009F319224C
:1002190075F008758200EF2FFFEE33FECD33CDCC9C
:1002290033CCC58233C5829BED9AEC99E58298401F
:100239000CF582EE9BFEED9AFDEC99FC0FD5F0D6FC
:10024900E4CEFBE4CDFAE4CCF9A88222B800C1B926
:100259000059BA002DEC8BF084CFCECDFCE5F0CB64
:10026900F97818EF2FFFEE33FEED33FDEC33FCEB9D
:1002790033FB10D703994004EB99FB0FD8E5E4F958
:10028900FA227818EF2FFFEE33FEED33FDEC33FC45
:10029900C933C910D7059BE99A4007EC9BFCE99A39
:1002A900F90FD8E0E4C9FAE4CCFB2275F010EF2F7E
:1002B900FFEE33FEED33FDCC33CCC833C810D7077E
:1002C9009BEC9AE899400AED9BFDEC9AFCE899F8B9
:0E02D9000FD5F0DAE4CDFBE4CCFAE4C8F9224C
:1002E700EB9FF5F0EA9E42F0E99D42F0E89C45F06D
:0102F70022E4
:0C02F800ECF0A3EDF0A3EEF0A3EFF02279
:10030400A8828583F0D083D08212031B12031B12B0
:10031400031B12031BE473E493A3C583C5F0C583D5
:10032400C8C582C8F0A3C583C5F0C583C8C582C843
:0103340022A6
:10033500D083D082F8E4937012740193700DA3A357
:1003450093F8740193F5828883E473740293B5F08E
:0D035500067403936860E9A3A3A3A380D8F6
:10074700E5082437F582E43400F583E005082290B4
:100757000034300703900037E475F00112038E026E
:10076700011C2000E97F2ED2008018EF540F24903F
:10077700D43440D4FF30040BEF24BFB41A00500325
:100787002461FFE50960021509050CE50C700205F7
:100797000B30070E900034E475F00112038EEF0260
:1007A70001620221CA7403D2078003E4C207F50875
:1007B7009000341203A5E4F509F50BF50CE5096083
:1007C700077F2012078A80F5750AFFC201C200C29F
:1007D70002C203C205C206C208120756FF700D30D7
:1007E70007057F0012079BAF0CAE0B22B4255FC233
:1007F700D5C204120756FF24D0B40A00501A75F068
:100807000A780930D50508B6FF0106C6A426F620E2
:10081700D5047002D20380D924CFB41A00EF500454
:10082700C2E5D20402099CD20180C6D20080C0D2A0
:100837000280BCD2D580BAD20580B47F2012078A45
:100847002002077401B5090040F1120747FF12079C
:100857008A0207C4D208D2068095120747FB1207FF
:1008670047FA120747F94A4B7006796D7A0A7BFFF8
:1008770020022EE509602A7E008E82758300120110
:100887003560060EEE650A70F0C2D5EBC0E0EAC02F
:10089700E0E9C0E0EE1209E3D0E0F9D0E0FAD0E0F9
:1008A700FB12011CFF60AAEBC0E0EAC0E0E9C0E070
:1008B70012078AD0E02401F9D0E03400FAD0E0FB37
:1008C700E50A0460DCD50AD980877BFF7A0979DFDE
:1008D700D202809C791080027908C206C20880087B
:1008E700D2D5790A8004790AC2D5E50A047002F5DF
:1008F7000AE4FAFDFEFF120747FC7B0820011312EA
:100907000747FD7B1030000A120747FE120747FF13
:100917007B20EC3382D592D55013C3E43000069F79
:10092700FFE49EFEE42001039DFDE49CFCE4CBF87C
:10093700C201EC700CCFCECDCCE824F8F870F38070
:1009470017C3EF33FFEE33FEED33FDEC33FCEB3330
:10095700FB994002FB0FD8E9EB300105F8D0E0C462
:1009670048B201C0E00AEC4D4E4F78207B0070C2C0
:10097700EAB50A0040BCC0E01209E5D0F0D0E0209B
:100987000104C4C0E0C4B201C0F0120773D0F0D5AF
:10099700F0EB0207C41203AE08615308DB580832B4
:1009A7004C082E4208DF4F08E74408E74908474349
:0809B70008ED5508D14608D1F6
:1009BF004508D1470A8D5008362D083A2E085D2B71
:1009CF00083E23085B200A762A07F64800000855E0
:1009DF003F3F3F00790AA2D5200314300509B91013
:1009EF00020404B9080104A2D52006025001042014
:1009FF0002689202B509005034C0E07F203003191D
:100A0F007F30A20272067205500F120A3CC202C258
:100A1F0006C205C2087F30800F300503E9C0E0121F
:100A2F00078A300503D0E0F9D0E0B509CC300517BF
:100A3F007F30B9100C12078A7F583004077F7880F7
:100A4F0003B9080312078A3002057F2D02078A7F38
:100A5F00202008F87F2B2006F322920280CF286EE9
:100A6F00756C6C2900D2011207473001F8C201786A
:100A7F000930D50108F60207F62D504349581207E1
:100A8F00472403B405004001E4900A889312077BC2
:0D0A9F00743A12077BD2037509040208DBCC
:10036200EF4E6012EF60010EEDBB010B89828A83B2
:10037200F0A3DFFCDEFA2289F05007F709DFFCA9BF
:0C038200F022BBFEFCF309DFFCA9F02216
:10038E00F8E0FBA3A3E0F925F0F0E58215827002F8
:07039E001583E0FA38F0229C
:0903A500EBF0A3EAF0A3E9F02259
:1003AE00D083D082F8E4937012740193700DA3A3DE
:1003BE0093F8740193F5828883E4737402936860F2
:0603CE00EFA3A3A380DFF2
:1021CA00EFB40A07740D1221D5740A309811A89930
:1021DA00B8130CC2983098FDA899C298B811F63075
:0721EA0099FDC299F599224D
:00000001FF
